:020000040800F2
:01000000E01F
:010001001CE2
:0100020000FD
:0100030020DC
:010004000DEE
:010005002ECC
:0100060000F9
:0100070008F0
:0100080031C6
:010009002EC8
:01000A0000F5
:01000B0008EC
:01000C0035BE
:01000D002EC4
:01000E0000F1
:01000F0008E8
:0100100039B6
:010011002EC0
:0100120000ED
:0100130008E4
:010014003DAE
:010015002EBC
:0100160000E9
:0100170008E0
:0100180041A6
:010019002EB8
:01001A0000E5
:01001B0008DC
:01001C0000E3
:01001D0000E2
:01001E0000E1
:01001F0000E0
:0100200000DF
:0100210000DE
:0100220000DD
:0100230000DC
:0100240000DB
:0100250000DA
:0100260000D9
:0100270000D8
:0100280000D7
:0100290000D6
:01002A0000D5
:01002B0000D4
:01002C00458E
:01002D002EA4
:01002E0000D1
:01002F0008C8
:010030004986
:010031002EA0
:0100320000CD
:0100330008C4
:0100340000CB
:0100350000CA
:0100360000C9
:0100370000C8
:010038004D7A
:010039002E98
:01003A0000C5
:01003B0008BC
:01003C005172
:01003D002E94
:01003E0000C1
:01003F0008B8
:01004000556A
:010041002E90
:0100420000BD
:0100430008B4
:010044005962
:010045002E8C
:0100460000B9
:0100470008B0
:010048005D5A
:010049002E88
:01004A0000B5
:01004B0008AC
:01004C006152
:01004D002E84
:01004E0000B1
:01004F0008A8
:01005000654A
:010051002E80
:0100520000AD
:0100530008A4
:010054006942
:010055002E7C
:0100560000A9
:0100570008A0
:010058006D3A
:010059002E78
:01005A0000A5
:01005B00089C
:01005C007132
:01005D002E74
:01005E0000A1
:01005F000898
:01006000752A
:010061002E70
:01006200009D
:010063000894
:010064007922
:010065002E6C
:010066000099
:010067000890
:010068007D1A
:010069002E68
:01006A000095
:01006B00088C
:01006C008112
:01006D002E64
:01006E000091
:01006F000888
:01007000850A
:010071002E60
:01007200008D
:010073000884
:010074008902
:010075002E5C
:010076000089
:010077000880
:010078008DFA
:010079002E58
:01007A000085
:01007B00087C
:01007C0091F2
:01007D002E54
:01007E000081
:01007F000878
:0100800095EA
:010081002E50
:01008200007D
:010083000874
:0100840099E2
:010085002E4C
:010086000079
:010087000870
:010088009DDA
:010089002E48
:01008A000075
:01008B00086C
:01008C00155E
:01008D002D45
:01008E000071
:01008F000868
:010090001956
:010091002D41
:01009200006D
:010093000864
:01009400A9C2
:010095002E3C
:010096000069
:010097000860
:01009800ADBA
:010099002E38
:01009A000065
:01009B00085C
:01009C00B1B2
:01009D002E34
:01009E000061
:01009F000858
:0100A000B5AA
:0100A1002E30
:0100A200005D
:0100A3000854
:0100A400B9A2
:0100A5002E2C
:0100A6000059
:0100A7000850
:0100A800BD9A
:0100A9002E28
:0100AA000055
:0100AB00084C
:0100AC001D36
:0100AD002D25
:0100AE000051
:0100AF000848
:0100B000C58A
:0100B1002E20
:0100B200004D
:0100B3000844
:0100B400C982
:0100B5002E1C
:0100B6000049
:0100B7000840
:0100B800CD7A
:0100B9002E18
:0100BA000045
:0100BB00083C
:0100BC00D172
:0100BD002E14
:0100BE000041
:0100BF000838
:0100C000D56A
:0100C1002E10
:0100C200003D
:0100C3000834
:0100C400D962
:0100C5002E0C
:0100C6000039
:0100C7000830
:0100C800DD5A
:0100C9002E08
:0100CA000035
:0100CB00082C
:0100CC00E152
:0100CD002E04
:0100CE000031
:0100CF000828
:0100D000E54A
:0100D1002E00
:0100D200002D
:0100D3000824
:0100D400E942
:0100D5002EFC
:0100D6000029
:0100D7000820
:0100D800ED3A
:0100D9002EF8
:0100DA000025
:0100DB00081C
:0100DC00F132
:0100DD002EF4
:0100DE000021
:0100DF000818
:0100E000F52A
:0100E1002EF0
:0100E200001D
:0100E3000814
:0100E400F922
:0100E5002EEC
:0100E6000019
:0100E7000810
:0100E800FD1A
:0100E9002EE8
:0100EA000015
:0100EB00080C
:0100EC00FF14
:0100ED00FF13
:0100EE00FF12
:0100EF00FF11
:0100F000FF10
:0100F100FF0F
:0100F200FF0E
:0100F300FF0D
:0100F400FF0C
:0100F500FF0B
:0100F600FF0A
:0100F700FF09
:0100F800FF08
:0100F900FF07
:0100FA00FF06
:0100FB00FF05
:0100FC00FF04
:0100FD00FF03
:0100FE00FF02
:0100FF00FF01
:0101000015E9
:010101003CC1
:01010200A557
:0101030047B4
:0101040000FA
:0101050000F9
:0101060000F8
:0101070021D6
:01010800777F
:010109002ACB
:01010A0000F4
:01010B0008EB
:01010C0010E2
:01010D00B53C
:01010E00DF11
:01010F00F8F7
:0101100020CE
:0101110047A6
:0101120000EC
:01011300B932
:010114002EBC
:01011500E009
:01011600DF09
:01011700F8EF
:010118001CCA
:0101190007DE
:01011A0000E4
:01011B00687B
:01011C0000E2
:01011D006879
:01011E008060
:01011F004798
:0101200020BE
:010121006875
:010122000AD2
:0101230030AB
:0101240010CA
:01012500BD1C
:010126008058
:01012700B522
:01012800DFF7
:01012900F8DD
:01012A0004D0
:01012B0007CC
:01012C00DFF3
:01012D00F8D9
:01012E0008C8
:01012F0027A8
:0101300000CE
:010131006865
:01013200527A
:010133007853
:01013400C109
:010135007851
:010136008A3E
:010137004285
:010138000DB9
:01013900D3F2
:01013A008242
:01013B00784B
:01013C0000C2
:01013D002A97
:01013E0004BC
:01013F00BF00
:01014000823C
:010141008835
:0101420000BC
:010143002A91
:0101440007B3
:01014500D1E8
:010146008137
:010147007245
:01014800DFD7
:01014900F8BD
:01014A00E8CC
:01014B0006AD
:01014C0000B2
:01014D006849
:01014E004070
:01014F006847
:01015000802E
:010151004766
:0101520000AC
:01015300208B
:0101540002A8
:01015500BDEC
:0101560002A6
:010157002087
:0101580002A4
:01015900BDE8
:01015A001094
:01015B00B5EE
:01015C00DFC3
:01015D00F8A9
:01015E00D0D0
:01015F004659
:01016000009E
:01016100B9E4
:010162000795
:01016300E0BB
:01016400DFBB
:01016500F8A1
:01016600CCCC
:010167000691
:010168000096
:01016900682D
:01016A008014
:01016B00682B
:01016C008012
:01016D00474A
:01016E002070
:01016F006827
:010170000C82
:01017100305D
:01017200107C
:01017300BDCE
:01017400206A
:010175006821
:010176000187
:010177002166
:010178000185
:010179008203
:01017A000084
:01017B002063
:01017C001072
:01017D00BDC4
:01017E001070
:01017F00B5CA
:01018000DF9F
:01018100F885
:01018200ACD0
:010183004635
:01018400DF9B
:01018500F881
:01018600B4C4
:010187002651
:010188002056
:01018900680D
:01018A001262
:01018B00680B
:01018C00C1B1
:01018D0078F9
:01018E004030
:01018F0079F6
:0101900092DC
:010191006904
:0101920090DC
:010193004724
:010194002149
:010195006801
:010196008ADE
:010197007AED
:010198009ACC
:01019900B1B4
:01019A000064
:01019B00283B
:01019C00045E
:01019D00BFA2
:01019E000858
:01019F0079E6
:0101A000005E
:0101A1002835
:0101A2000E4E
:0101A300D18A
:0101A40088D2
:0101A50078E1
:0101A60060F8
:0101A700B99E
:0101A800DF77
:0101A900F85D
:0101AA0088CC
:0101AB00064D
:0101AC000052
:0101AD0068E9
:0101AE00C090
:0101AF0068E7
:0101B00080CE
:0101B1004706
:0101B200202C
:0101B30068E3
:0101B4004109
:0101B50079D0
:0101B600C187
:0101B70072D5
:0101B8002026
:0101B90068DD
:0101BA00C183
:0101BB0078CB
:0101BC000141
:0101BD0073CE
:0101BE000040
:0101BF00201F
:0101C000102E
:0101C100BD80
:0101C200023A
:0101C300201B
:0101C400102A
:0101C500BD7C
:0101C6001028
:0101C700B582
:0101C800DF57
:0101C900F83D
:0101CA0064D0
:0101CB00161D
:0101CC000929
:0101CD0068C9
:0101CE001818
:0101CF00B976
:0101D000022C
:0101D100200D
:0101D2000824
:0101D30082A9
:0101D400002A
:0101D5002009
:0101D6001018
:0101D700BD6A
:0101D8000026
:0101D9002005
:0101DA00DF45
:0101DB00F82B
:0101DC0064BE
:0101DD0046DB
:0101DE002000
:0101DF00809F
:0101E0007F9F
:0101E10022FB
:0101E2000814
:0101E30078A3
:0101E400100A
:0101E50042D7
:0101E6001503
:0101E700D146
:0101E80048CE
:0101E9007A9B
:0101EA008193
:0101EB00060D
:0101EC00030F
:0101ED00D53C
:0101EE000010
:0101EF0021EE
:0101F00041CD
:0101F100F01D
:0101F200020A
:0101F300010A
:0101F40021E9
:0101F5007099
:0101F60040C8
:0101F7000601
:0101F80021E5
:0101F900788D
:0101FA0054B0
:0101FB00BF44
:0101FC000101
:0101FD00F011
:0101FE00FE02
:0101FF0000FF
:0102000041BC
:01020100F00C
:0102020001FA
:0102030000FA
:0102040020D9
:010205007088
:01020600DF18
:01020700F8FE
:010208002CC9
:0102090006EE
:01020A0000F3
:01020B00688A
:01020C0000F1
:01020D006987
:01020E00806F
:01020F0047A7
:0102100020CD
:0102110046A6
:0102120010DB
:01021300BD2D
:0102140000E9
:01021500F0F8
:010216007F68
:0102170002E4
:0102180001E4
:010219002ABA
:01021A00F9EA
:01021B00D012
:01021C0000E1
:01021D00F0F0
:01021E007F60
:01021F0000DE
:0102200002DB
:0102210028B4
:01022200D704
:01022300D109
:010224004891
:01022500795F
:01022600DFF8
:01022700F8DE
:010228001CB9
:0102290026AE
:01022A0000D3
:01022B00F0E2
:01022C000FC2
:01022D0001CF
:01022E0000CF
:01022F0006C8
:01023000527B
:01023100F8D4
:0102320021AA
:0102330000CA
:0102340007C2
:01023500D5F3
:0102360000C7
:01023700F0D6
:010238003095
:0102390000C4
:01023A0010B3
:01023B00289A
:01023C00E3DE
:01023D00D1EF
:01023E0000BF
:01023F00209E
:01024000407D
:01024100F0CC
:0102420001BA
:0102430000BA
:01024400DEDB
:01024500E7D1
:0102460000B7
:01024700F4C2
:010248004075
:010249005064
:01024A00B003
:01024B00F5BD
:01024C008031
:01024D005F51
:01024E00DAD5
:01024F00D1DD
:0102500000AD
:01025100208C
:01025200406B
:01025300F0BA
:0102540001A8
:0102550000A8
:01025600D5D2
:01025700E7BF
:010258007035
:01025900B5EF
:01025A00DFC4
:01025B00F8AA
:01025C00D4CD
:01025D00059B
:01025E00009F
:01025F006836
:01026000019C
:010261007824
:01026200118A
:01026300F0AA
:010264007F1A
:010265000197
:010266000493
:01026700D1C5
:010268004154
:010269007A1A
:01026A000192
:01026B00F0A2
:01026C00DFB2
:01026D00018F
:01026E00414E
:01026F00721C
:01027000513C
:01027100E0AC
:010272000289
:010273002961
:010274000188
:01027500BFC9
:010276004146
:0102770088FE
:010278000085
:01027900295B
:01027A000182
:01027B007909
:01027C000081
:01027D002957
:01027E004C33
:01027F00D1AD
:01028000413C
:010281007903
:01028200DF9C
:01028300F882
:01028400C0B9
:010285004533
:010286002156
:01028700F086
:0102880080F5
:01028900056F
:01028A000A69
:01028B00066C
:01028C00541D
:01028D00F878
:01028E00254A
:01028F00204E
:010290004C21
:01029100BFAD
:010292000269
:01029300F07A
:010294003039
:010295000266
:010296000265
:01029700F472
:010298004025
:010299005212
:01029A00DF84
:01029B00F86A
:01029C009CC5
:01029D00352B
:01029E001B44
:01029F0078E6
:0102A0009DC0
:0102A100421A
:0102A2003A21
:0102A300D288
:0102A4000059
:0102A5002A2E
:0102A6001C3B
:0102A700BF97
:0102A80080D5
:0102A9007ADA
:0102AA000053
:0102AB00282A
:0102AC00351C
:0102AD00D080
:0102AE000847
:0102AF000648
:0102B00054F9
:0102B100F854
:0102B2002526
:0102B300004A
:0102B4000B3E
:0102B500D573
:0102B6000047
:0102B700F056
:0102B8003015
:0102B9000044
:0102BA001033
:0102BB00281A
:0102BC00261B
:0102BD00D16F
:0102BE002817
:0102BF0046F8
:0102C000003D
:0102C100F04C
:0102C20045F6
:0102C300FB3F
:0102C4003009
:0102C5002117
:0102C600280F
:0102C70046F0
:0102C8000035
:0102C900F044
:0102CA00F63D
:0102CB00FA38
:0102CC001E13
:0102CD00E050
:0102CE00002F
:0102CF00F43A
:0102D00040ED
:0102D10050DC
:0102D200B07B
:0102D300F535
:0102D40080A9
:0102D5005FC9
:0102D600190E
:0102D700D155
:0102D8004BDA
:0102D900F62E
:0102DA008F94
:0102DB0076AC
:0102DC0065BC
:0102DD00B967
:0102DE00DF40
:0102DF00F826
:0102E00068B5
:0102E1000517
:0102E200908B
:0102E300F822
:0102E4002CED
:0102E5001008
:0102E6000017
:0102E70020F6
:0102E8000015
:0102E900F024
:0102EA005EB5
:0102EB00FB17
:0102EC0020F1
:0102ED0068A8
:0102EE0030DF
:0102EF0040CE
:0102F000808D
:0102F100F418
:0102F20040CB
:0102F30050BA
:0102F40020E9
:0102F50060A8
:0102F60009FE
:0102F700E026
:0102F80028DD
:0102F90046BE
:0102FA000003
:0102FB00F012
:0102FC0018E9
:0102FD00FB05
:0102FE0054AB
:0102FF00F806
:0103000025D7
:0103010000FB
:0103020030CA
:0103030040B9
:010304008078
:01030500F403
:0103060040B6
:0103070050A5
:0103080044B0
:01030900F8FB
:01030A0025CD
:01030B0000F1
:01030C00DF11
:01030D00F8F7
:01030E0024CA
:01030F0005E8
:0103100000EC
:010311006883
:0103120040AA
:010313006980
:010314008068
:0103150047A0
:0103160000E6
:0103170020C5
:010318007074
:01031900BD26
:01031A0002E0
:01031B0020C1
:01031C007070
:01031D00BD22
:01031E0038A6
:01031F00B528
:01032000DFFD
:01032100F8E3
:010322000CCE
:0103230005D4
:01032400DFF9
:01032500F8DF
:010326001CBA
:0103270015C0
:0103280002D2
:01032900686B
:01032A00537F
:01032B007958
:01032C0023AD
:01032D00F0DF
:01032E00804E
:01032F0000CD
:010330001CB0
:0103310006C5
:010332005179
:01033300F8D1
:0103340020A8
:010335004087
:010336004C7A
:01033700BF06
:0103380004C0
:01033900F0D3
:01033A003092
:01033B0004BD
:01033C0004BC
:01033D00F4CB
:01033E00407E
:01033F005469
:01034000DFDD
:01034100F8C3
:01034200F4C6
:010343005465
:010344002D8B
:01034500783F
:01034600A80E
:010347004273
:0103480006AE
:01034900D2E1
:01034A00555D
:01034B008829
:01034C00258B
:01034D00B9F6
:01034E0000AE
:01034F002C81
:010350001C90
:01035100BFEC
:010352009218
:010353007A2F
:0103540000A8
:010355002A7D
:0103560001A5
:01035700D1D4
:0103580002A2
:010359002083
:01035A003270
:01035B00BDE4
:01035C001A86
:01035D000699
:01035E00514D
:01035F00F8A5
:01036000207C
:01036100207B
:010362000595
:01036300D5C4
:010364004850
:01036500F6A1
:01036600BFD7
:010367007322
:010368001A7A
:010369004053
:01036A008210
:01036B00F0A1
:01036C001080
:01036D00028D
:01036E00048A
:01036F00E0AD
:010370004B41
:01037100F695
:010372008FFB
:010373007316
:010374001A6E
:010375004047
:010376008204
:01037700F491
:010378008004
:010379005231
:01037A004141
:01037B00F889
:01037C002060
:01037D00205F
:01037E00DF9F
:01037F00F885
:01038000B4C8
:010381000477
:01038200007A
:010383006811
:0103840080F8
:01038500690E
:0103860080F6
:01038700472E
:010388000074
:010389002053
:01038A003240
:01038B00BDB4
:01038C00DF91
:01038D00F877
:01038E00A0CE
:01038F002449
:01039000125A
:010391006803
:010392005317
:010393008ADF
:010394002048
:01039500B9AE
:0103960088DE
:0103970088DD
:01039800C0A4
:010399001A49
:01039A001052
:01039B0082DF
:01039C000060
:01039D00203F
:01039E0070EE
:01039F004716
:0103A0000854
:0103A10068F3
:0103A2001842
:0103A3001841
:0103A40070E8
:0103A5004710
:0103A6002D29
:0103A700E96C
:0103A800F064
:0103A9004112
:0103AA00DF73
:0103AB00F859
:0103AC0084CC
:0103AD00440B
:0103AE00202E
:0103AF0068E5
:0103B000004C
:0103B100F15A
:0103B200103A
:0103B3000544
:0103B400291F
:0103B50088BF
:0103B6000046
:0103B700291C
:0103B8000440
:0103B900BF84
:0103BA000042
:0103BB007AC7
:0103BC00043C
:0103BD002817
:0103BE00023C
:0103BF00D16C
:0103C0000735
:0103C1002615
:0103C200102A
:0103C3002019
:0103C4002513
:0103C500E057
:0103C600AF87
:0103C70088AD
:0103C8008FA5
:0103C90042F1
:0103CA00052D
:0103CB00D35E
:0103CC00042C
:0103CD002609
:0103CE00B975
:0103CF0042EB
:0103D00088A4
:0103D100BF6C
:0103D20039F1
:0103D30046E3
:0103D4000F19
:0103D50046E1
:0103D6000026
:0103D700E045
:0103D8000222
:0103D90026FD
:0103DA00A979
:0103DB0068B9
:0103DC0038E8
:0103DD0046D9
:0103DE008896
:0103DF0047D6
:0103E000809C
:0103E10046D5
:0103E200001A
:0103E30020F9
:0103E4000018
:0103E500F027
:0103E600D145
:0103E700FA1B
:0103E8000113
:0103E90046CD
:0103EA003AD8
:0103EB0046CB
:0103EC0040D0
:0103ED0046C9
:0103EE00000E
:0103EF00F01D
:0103F0002AE2
:0103F100FB10
:0103F20039D1
:0103F30046C3
:0103F4000008
:0103F50020E7
:0103F6000006
:0103F700F015
:0103F800D034
:0103F900FA09
:0103FA0028DA
:0103FB008879
:0103FC00DF21
:0103FD00F807
:0103FE004CB2
:0103FF0014E9
:01040000C03B
:010401001BDF
:0104020028D1
:010403008078
:010404004FA8
:01040500F402
:0104060040B5
:0104070052A2
:01040800688B
:01040900886A
:01040A0038B9
:01040B0018D8
:01040C006887
:01040D00806E
:01040E000AE3
:01040F00806C
:0104100030BB
:0104110020CA
:01041200DF0A
:01041300F8F0
:010414003CAB
:0104150014D2
:0104160008DD
:010417008064
:0104180020C3
:01041900687A
:01041A0006DB
:01041B00726E
:01041C00BD22
:01041D00E8F6
:01041E00F0ED
:01041F00815B
:0104200038A3
:01042100B525
:01042200DFFA
:01042300F8E0
:010424000CCB
:010425004492
:0104260020B5
:01042700686C
:01042800458E
:01042900785A
:01042A0001D0
:01042B007858
:01042C007F50
:01042D0022AC
:01042E0011BC
:01042F00428A
:01043000418A
:01043100D1F9
:0104320009C0
:010433002D9B
:0104340002C5
:01043500D1F5
:01043600FFC6
:01043700F7CD
:01043800764D
:01043900FEC4
:01043A005071
:01043B00E0E0
:01043C0005BA
:01043D002D91
:01043E001BA2
:01043F00D1EB
:01044000C1FA
:010441007842
:010442008039
:01044300298F
:01044400595E
:01044500DADC
:010446008134
:01044700783C
:0104480000B3
:010449002989
:01044A0001B0
:01044B00BFF1
:01044C00812E
:01044D008826
:01044E0000AD
:01044F002983
:01045000802B
:010451007A30
:0104520000A9
:010453002880
:010454005156
:01045500D1D5
:01045600DFC6
:01045700F8AC
:01045800FCA7
:01045900138F
:01045A00DFC2
:01045B00F8A8
:01045C00FCA3
:01045D00237B
:01045E000994
:01045F006834
:010460008912
:01046100B2E8
:010462000099
:010463002375
:010464004255
:01046500F89E
:010466001184
:010467003064
:01046800068D
:010469002072
:01046A00DFB2
:01046B00F898
:01046C00E4AB
:01046D00137B
:01046E00305D
:01046F00226A
:010470000A81
:01047100800A
:010472002168
:010473006820
:01047400087F
:010475007214
:010476003154
:01047700BDC7
:010478000380
:010479002D55
:01047A001170
:01047B00D1AF
:01047C00C1BE
:01047D007806
:01047E00017C
:01047F002953
:010480000477
:01048100BFBB
:0104820081F8
:0104830088F0
:010484000077
:01048500294D
:010486002C49
:01048700D1A3
:010488004132
:010489007AF8
:01048A008AE7
:01048B00066A
:01048C002946
:01048D00D599
:01048E00412C
:01048F00F07C
:01049000204B
:010491000169
:010492004128
:0104930072F6
:01049400DF88
:01049500F86E
:010496009CC9
:010497000361
:010498000063
:0104990068FA
:01049A00C0A1
:01049B0069F7
:01049C0080DF
:01049D004717
:01049E00DA83
:01049F00E775
:0104A000015A
:0104A1002D2D
:0104A2000455
:0104A300BF99
:0104A400C196
:0104A50078DE
:0104A6000154
:0104A700292B
:0104A8001B38
:0104A900D181
:0104AA0081D0
:0104AB0088C8
:0104AC00C986
:0104AD00B995
:0104AE00400D
:0104AF007AD2
:0104B00080CB
:0104B1000644
:0104B2000D3C
:0104B300D474
:0104B4001532
:0104B500E066
:0104B6000144
:0104B700F054
:0104B8007FC4
:0104B9000042
:0104BA000140
:0104BB002818
:0104BC00043B
:0104BD00D16D
:0104BE000B32
:0104BF002D0F
:0104C0000F2C
:0104C100D169
:0104C200FF3A
:0104C300F741
:0104C4005CDB
:0104C500FE38
:0104C6000A2B
:0104C700E054
:0104C8000231
:0104C900280A
:0104CA000A27
:0104CB00D15F
:0104CC00012E
:0104CD002D01
:0104CE00022B
:0104CF00D15B
:0104D000FF2C
:0104D100F733
:0104D200C267
:0104D300FE2A
:0104D4000324
:0104D500E046
:0104D6000322
:0104D7002DF7
:0104D8000320
:0104D900D151
:0104DA00FF22
:0104DB00F729
:0104DC0020FF
:0104DD00FF1F
:0104DE00001D
:0104DF0028F4
:0104E000B962
:0104E100D04A
:0104E200DF3A
:0104E300F820
:0104E40058BF
:0104E5001303
:0104E600090C
:0104E70068AC
:0104E80049CA
:0104E90069A9
:0104EA0028E9
:0104EB0046CA
:0104EC008887
:0104ED0047C7
:0104EE00030A
:0104EF0028E4
:0104F0000803
:0104F100BF4B
:0104F2000900
:0104F30020E8
:0104F400BD4A
:0104F500D036
:0104F6000005
:0104F70028DC
:0104F800AD56
:0104F900D032
:0104FA0008F9
:0104FB0020E0
:0104FC00B946
:0104FD00E717
:0104FE0010ED
:0104FF00B547
:01050000CB2F
:010501004CAD
:0105020020D8
:01050300688F
:0105040041B5
:01050500787D
:0105060006EE
:0105070029CA
:0105080016DC
:01050900D120
:01050A0001EF
:01050B007877
:01050C007F6F
:01050D0022CB
:01050E0011DB
:01050F0042A9
:0105100031B9
:01051100D118
:010512008068
:01051300786F
:0105140001E5
:0105150028BD
:0105160003E1
:01051700D112
:01051800C81A
:010519004899
:01051A0000E0
:01051B006877
:01051C00C11D
:01051D006974
:01051E007567
:01051F00E0FB
:0105200002D8
:0105210028B1
:0105220003D5
:01052300D106
:01052400C511
:01052500488D
:0105260000D4
:01052700686B
:0105280001D1
:010529006A67
:01052A006F61
:01052B00E0EF
:01052C0003CB
:01052D0028A5
:01052E0022AA
:01052F00D1FA
:01053000C208
:010531004881
:0105320000C8
:01053300685F
:010534004185
:010535006A5B
:01053600695B
:01053700E0E3
:0105380000C2
:010539002998
:01053A00447C
:01053B00D1EE
:01053C00417D
:01053D008835
:01053E0000BC
:01053F002992
:0105400004B6
:01054100BFFA
:01054200C1F7
:01054300882F
:0105440002B4
:01054500298C
:01054600169E
:01054700D1E2
:0105480001B1
:010549007938
:01054A00A10F
:01054B00B9F6
:01054C0001AD
:01054D007835
:01054E007F2D
:01054F002289
:010550001199
:010551004267
:0105520004A4
:01055300BFE8
:010554008224
:01055500881D
:0105560000A4
:010557002A79
:01055800336F
:01055900D0D1
:01055A00019F
:01055B00F0AF
:01055C007F1F
:01055D00029B
:01055E00019B
:01055F002A71
:010560001585
:01056100D1C8
:01056200B6E2
:010563004A4D
:010564004056
:01056500791C
:010566001282
:01056700682B
:010568009200
:010569006928
:01056A000090
:01056B00216E
:01056C0090FE
:01056D004746
:01056E00107C
:01056F00B9D2
:01057000206A
:010571006821
:010572008008
:010573007A0D
:01057400285E
:01057500BBCA
:01057600B1D3
:01057700493A
:010578002062
:010579006819
:01057A000977
:01057B006817
:01057C00403E
:01057D007805
:01057E000973
:01057F006912
:0105800088F2
:010581004732
:010582000375
:01058300284F
:010584004B2B
:01058500D1A4
:010586002054
:01058700680B
:010588000969
:010589002150
:01058A00016F
:01058B0072FD
:01058C00105E
:01058D00BDB0
:01058E00016B
:01058F00F07B
:010590007FEB
:010591000168
:010592000266
:01059300293E
:01059400EF77
:01059500D194
:010596004024
:0105970079EA
:01059800AAB8
:010599004B16
:01059A000060
:01059B00F06F
:01059C000F4F
:01059D00015C
:01059E00005C
:01059F00F06B
:0105A00070EA
:0105A1000257
:0105A2000058
:0105A3000651
:0105A4005303
:0105A500F85D
:0105A6002133
:0105A7000053
:0105A8004C06
:0105A900BF92
:0105AA000050
:0105AB00F05F
:0105AC00301E
:0105AD00004D
:0105AE00004C
:0105AF00F457
:0105B000400A
:0105B10050F9
:0105B200A1A7
:0105B3004BFC
:0105B4001B2B
:0105B50078CD
:0105B60099AB
:0105B7004201
:0105B800DD65
:0105B900D26F
:0105BA000040
:0105BB002A15
:0105BC00DB63
:0105BD00D16C
:0105BE00003C
:0105BF002813
:0105C000D961
:0105C100D069
:0105C200A692
:0105C30049EE
:0105C4002214
:0105C500E055
:0105C600082C
:0105C700290A
:0105C800052D
:0105C900D160
:0105CA000030
:0105CB0078B7
:0105CC007FAF
:0105CD00210C
:0105CE000824
:0105CF0042E9
:0105D000D159
:0105D100D158
:0105D200A385
:0105D30049DE
:0105D4001A0C
:0105D500E045
:0105D6000A1A
:0105D70029FA
:0105D8000220
:0105D900BF62
:0105DA00011F
:0105DB0078A7
:0105DC00011D
:0105DD00F02D
:0105DE007F9D
:0105DF00011A
:0105E0000119
:0105E10029F0
:0105E200C850
:0105E300D146
:0105E4008195
:0105E5007A9B
:0105E6000014
:0105E70029EA
:0105E800C54D
:0105E900D041
:0105EA0041CF
:0105EB008887
:0105EC00000E
:0105ED0029E4
:0105EE00010B
:0105EF00BF4C
:0105F0000109
:0105F1007990
:0105F2000008
:0105F30029DE
:0105F400C145
:0105F500887D
:0105F6000103
:0105F70029DA
:0105F800BD45
:0105F900D130
:0105FA009070
:0105FB004AB5
:0105FC0040BE
:0105FD007984
:0105FE0012EA
:0105FF006893
:010600009267
:01060100698F
:0106020000F7
:0106030021D5
:010604009065
:0106050047AD
:0106060000F3
:0106070028CA
:01060800B53C
:01060900D11F
:01060A009659
:01060B0049A5
:01060C0008E5
:01060D0000EC
:01060E00B239
:01060F00D01A
:0106100020C9
:010611006880
:0106120000E7
:0106130022C4
:0106140042A3
:010615008262
:010616008162
:010617006181
:0106180000E1
:0106190020C0
:01061A008857
:01061B004797
:01061C0000DD
:01061D0020BC
:01061E0021BA
:01061F006872
:010620000ACF
:010621008A4E
:010622004F88
:01062300F6E0
:01062400FFD6
:010625007361
:010626009A39
:010627004290
:0106280008C9
:01062900BF11
:01062A0009C6
:01062B0020AE
:01062C0004C9
:01062D00D0FC
:01062E0002C9
:01062F0028A2
:0106300018B1
:01063100BF09
:0106320000C7
:010633002A9C
:0106340002C3
:01063500D1F3
:0106360008BB
:0106370020A2
:0106380008B9
:01063900724E
:01063A0010AF
:01063B00BD01
:01063C0008B5
:01063D007844
:01063E0000BB
:01063F0006B4
:010640000BAE
:01064100D5E3
:01064200C8EF
:01064300882E
:010644009025
:010645004272
:01064600387B
:01064700BFF3
:0106480008A9
:01064900822E
:01064A007C33
:01064B004866
:01064C0000AD
:01064D006844
:01064E00901B
:01064F00F8B2
:010650002C7D
:0106510000A8
:01065200881F
:010653008224
:01065400BDE8
:01065500E8BC
:010656001093
:010657004062
:01065800A5FC
:01065900E6BA
:01065A00039C
:01065B00207E
:01065C000895
:01065D00722A
:01065E004F4C
:01065F00F4A6
:010660004059
:010661005147
:010662007A1D
:01066300484E
:010664000194
:010665008014
:010666001083
:01066700BDD5
:010668003859
:01066900B5DB
:01066A007A15
:01066B004846
:01066C007E0F
:01066D004943
:01066E00008B
:01066F006822
:010670006F1A
:010671004C3C
:010672008007
:01067300B2D4
:010674003154
:01067500F88C
:010676001073
:010677000082
:010678002160
:010679006818
:01067A000A75
:01067B007A04
:01067C00403D
:01067D00007C
:01067E00007B
:01067F00F189
:0106800080F9
:010681004038
:010682000077
:01068300F581
:01068400C0B5
:010685004034
:01068600096A
:010687002A48
:01068800145D
:01068900D0A0
:01068A00105F
:01068B00F876
:01068C00016C
:01068D002B41
:01068E000A61
:01068F0070FA
:010690002148
:010691006800
:010692001057
:01069300F86E
:010694000164
:010695002B39
:010696004A19
:0106970070F2
:0106980085DC
:010699001C44
:01069A00352A
:01069B00F866
:01069C000459
:01069D000B51
:01069E00005B
:01069F00F06A
:0106A000CD8C
:0106A100F95F
:0106A2002136
:0106A30068EE
:0106A400480D
:0106A50080D4
:0106A600282B
:0106A70088CA
:0106A8000051
:0106A900F060
:0106AA00C887
:0106AB00F955
:0106AC00212C
:0106AD0068E4
:0106AE0088C3
:0106AF0080CA
:0106B000A8A1
:0106B10088C0
:0106B200C87F
:0106B30080C6
:0106B4000144
:0106B5002123
:0106B6002023
:0106B70068DA
:0106B8000140
:0106B90072CE
:0106BA00201F
:0106BB0068D6
:0106BC00C07D
:0106BD0088B4
:0106BE00102B
:0106BF00B981
:0106C000FF3A
:0106C100F741
:0106C200AE89
:0106C300FE38
:0106C4000134
:0106C500E054
:0106C600FF34
:0106C700F73B
:0106C8001A17
:0106C900FF31
:0106CA00BD72
:0106CB00E846
:0106CC0031FC
:0106CD0040EC
:0106CE007DAE
:0106CF00E04A
:0106D0001019
:0106D100B573
:0106D20057D0
:0106D3004CDA
:0106D4002005
:0106D50068BC
:0106D6000122
:0106D7007AA8
:0106D800021F
:0106D90029F7
:0106DA001807
:0106DB00BF5F
:0106DC000419
:0106DD0029F3
:0106DE000417
:0106DF00D149
:0106E000FF1A
:0106E100F721
:0106E20061B6
:0106E300FE18
:0106E40020F5
:0106E50068AC
:0106E6000013
:0106E7007A98
:0106E80014FD
:0106E900E030
:0106EA000609
:0106EB0029E5
:0106EC0011FC
:0106ED00D13B
:0106EE0041CA
:0106EF007892
:0106F0000504
:0106F10029DF
:0106F2000205
:0106F300BF47
:0106F4000104
:0106F500788C
:0106F6007F84
:0106F70022E0
:0106F80011F0
:0106F90042BE
:0106FA0006F9
:0106FB00D12D
:0106FC00C03D
:0106FD007884
:0106FE0000FB
:0106FF00F00A
:010700007F79
:01070100F8FF
:010702004CAA
:0107030048AD
:0107040000F4
:01070500688B
:0107060000F2
:010707006A87
:010708008070
:0107090047A8
:01070A004CA2
:01070B0048A5
:01070C0000EC
:01070D006883
:01070E00806A
:01070F006881
:010710008068
:0107110047A0
:0107120008DE
:0107130020C5
:0107140021C3
:01071500687B
:0107160008DA
:01071700726F
:01071800BD23
:01071900E8F7
:01071A0010CE
:01071B00409D
:01071C005686
:01071D00E0FB
:01071E00F8E2
:01071F00B524
:010720004395
:010721004C8B
:0107220020B6
:01072300686D
:0107240001D3
:010725007A59
:0107260003CF
:0107270029A8
:0107280018B8
:01072900BF10
:01072A0005C9
:01072B0029A4
:01072C004389
:01072D00D1FA
:01072E0000CA
:01072F00F1D8
:0107300010B8
:0107310005C2
:01073200A91D
:01073300685D
:010734002E96
:01073500883B
:0107360008BA
:0107370000C1
:0107380018A8
:01073900BF00
:01073A0000BE
:01073B002E8F
:01073C0014A8
:01073D00D0EB
:01073E00A812
:01073F008831
:010740008632
:010741004275
:01074200882E
:01074300BFF6
:0107440006AE
:01074500466D
:010746003082
:01074700466B
:010748008828
:010749004768
:01074A0007A7
:01074B004667
:01074C002884
:01074D008823
:01074E00802A
:01074F001B8E
:010750002880
:010751008027
:01075200683E
:01075300881D
:010754003074
:01075500188B
:01075600683A
:010757008021
:0107580000A0
:01075900207F
:01075A00009E
:01075B00F0AD
:01075C001785
:01075D00F9A2
:01075E000199
:01075F004653
:010760003266
:010761004651
:01076200385E
:01076300464F
:010764000094
:01076500F0A3
:01076600850D
:01076700F998
:010768002868
:010769008807
:01076A00503E
:01076B00B1DC
:01076C003755
:01076D004843
:01076E004F3B
:01076F00F495
:010770004048
:010771005136
:010772000185
:010773008005
:010774000084
:010775002063
:010776000082
:010777002160
:010778000080
:01077900F08F
:01077A000F6F
:01077B00F984
:01077C003448
:01077D004833
:01077E00304A
:01077F002158
:010780000177
:0107810080F7
:01078200284E
:0107830088ED
:01078400AACA
:0107850088EB
:010786002151
:010787006809
:0107880090E0
:01078900422D
:01078A002846
:01078B00BFAE
:01078C000369
:01078D00204B
:01078E000169
:01078F00D297
:010790001058
:01079100B1B6
:010792000561
:010793002045
:01079400085C
:0107950072F1
:010796000B57
:01079700E081
:01079800065A
:01079900203F
:01079A000856
:01079B0072EB
:01079C00005C
:01079D002239
:01079E002D2D
:01079F004811
:0107A0002D2B
:0107A100490E
:0107A2000056
:0107A30068ED
:0107A40080D4
:0107A500B2A1
:0107A6004111
:0107A700F859
:0107A8001040
:0107A900202F
:0107AA00301E
:0107AB00212C
:0107AC002824
:0107AD004803
:0107AE000149
:0107AF0080C9
:0107B0002028
:0107B10068DF
:0107B2000046
:0107B3007ACB
:0107B400063E
:0107B500E063
:0107B600073B
:0107B7002918
:0107B800033D
:0107B900D16E
:0107BA00201E
:0107BB0048F5
:0107BC00003C
:0107BD0068D3
:0107BE00C07A
:0107BF0068D1
:0107C00080B8
:0107C10047F0
:0107C200082E
:0107C3002015
:0107C4002113
:0107C50068CB
:0107C600082A
:0107C70072BF
:0107C800BD73
:0107C900E847
:0107CA00F13D
:0107CB0040ED
:0107CC0080AC
:0107CD00B576
:0107CE001E0C
:0107CF0048E1
:0107D0009098
:0107D100F82F
:0107D2002CFA
:0107D3001015
:0107D4000024
:0107D5002003
:0107D6000022
:0107D700F031
:0107D800E739
:0107D900F827
:0107DA001509
:0107DB0048D5
:0107DC00001C
:0107DD0068B3
:0107DE000119
:0107DF007A9F
:0107E0000810
:0107E10029EE
:0107E2000610
:0107E300D144
:0107E40019FB
:0107E50049CA
:0107E6004FC3
:0107E700F41D
:0107E8008090
:0107E90052BD
:0107EA000A04
:0107EB00808D
:0107EC0010FC
:0107ED0022E9
:0107EE0018F2
:0107EF0049C0
:0107F0000AFE
:0107F1008087
:0107F2000006
:0107F3007A8B
:0107F40009FB
:0107F50028DB
:0107F6000101
:0107F700D130
:0107F80001FF
:0107F90020DF
:0107FA0002FC
:0107FB00BD40
:0107FC0000FC
:0107FD0020DB
:0107FE0002F8
:0107FF00BD3C
:01080000F007
:01080100B442
:010802000DE8
:0108030049AB
:010804000FE4
:010805004BA7
:0108060009E8
:010807007878
:0108080000EF
:0108090022CC
:01080A005994
:01080B00B13B
:01080C001CCF
:01080D0046A4
:01080E0048A1
:01080F00F6F2
:010810008F58
:010811007571
:0108120026BF
:01081300687C
:010814002EB5
:0108150040A2
:01081600D70A
:01081700B22E
:010818003EA1
:01081900439B
:01081A00528B
:01081B001CC0
:01081C004497
:01081D00F8E2
:01081E0004D5
:01081F006B6D
:010820008A4D
:010821004294
:01082200F6DF
:01082300D301
:010824004093
:01082500F0E2
:010826008051
:0108270000D0
:01082800D8F7
:01082900646A
:01082A00F0DD
:01082B00BC10
:01082C00705B
:01082D004783
:01082E0000C9
:01082F0000C8
:010830008443
:0108310014B2
:0108320000C5
:0108330020A4
:010834008C37
:0108350014AE
:0108360000C1
:0108370020A0
:010838004877
:0108390003BB
:01083A0000BD
:01083B00209C
:01083C008833
:01083D0014A6
:01083E0000B9
:01083F002098
:01084000C4F3
:0108410014A2
:0108420000B5
:010843002094
:0108440000B3
:010845005C56
:0108460000B1
:010847004070
:01084800347B
:0108490002AC
:01084A0000AD
:01084B00208C
:01084C00C8E3
:01084D001496
:01084E0000A9
:01084F002088
:01085000CADD
:010851001492
:0108520000A5
:010853002084
:010854005053
:010855005C46
:0108560000A1
:010857004060
:01085800049B
:01085900603E
:01085A00009D
:01085B00405C
:01085C00C7D4
:01085D000199
:01085E000099
:01085F000890
:010860000D8A
:010861000195
:010862000095
:01086300088C
:010864005B38
:010865000191
:010866000091
:010867000888
:010868000887
:01086900602E
:01086A00008D
:01086B00404C
:01086C00701B
:01086D004743
:01086E001079
:01086F00B4D4
:010870005037
:01087100F88E
:010872000481
:010873001B69
:010874008102
:01087500B1D1
:01087600027F
:010877006818
:01087800126D
:010879001866
:01087A00007D
:01087B001D5F
:01087C00502B
:01087D00F882
:01087E000475
:01087F003B3D
:01088000DC9B
:01088100076F
:010882004431
:01088300BFB5
:01088400A9CA
:01088500F181
:010886000170
:01088700046C
:01088800E38C
:010889001856
:01088A00521B
:01088B00F874
:01088C000467
:01088D004B1F
:01088E004326
:01088F00F870
:010890000463
:010891004B1B
:01089200095C
:010893001F45
:01089400F96A
:01089500D191
:01089600EB76
:01089700E779
:01089800104F
:01089900BCA2
:01089A0070ED
:01089B004715
:01089C004F0C
:01089D00F664
:01089E00F861
:01089F0071E7
:0108A000084F
:0108A1004016
:0108A200DF76
:0108A300F85C
:0108A40080D3
:0108A5001141
:0108A6000849
:0108A70060F0
:0108A80070DF
:0108A9004707
:0108AA00DF6E
:0108AB00F854
:0108AC007CCF
:0108AD002129
:0108AE0052F7
:0108AF00F850
:0108B0002027
:0108B1003016
:0108B20048FD
:0108B300F64E
:0108B4008FB4
:0108B5001C26
:0108B6005AE7
:0108B700E060
:0108B800DF60
:0108B900F846
:0108BA006CD1
:0108BB00211B
:0108BC0052E9
:0108BD00F842
:0108BE002019
:0108BF003008
:0108C00048EF
:0108C100F640
:0108C200BF76
:0108C3007CB8
:0108C4000C27
:0108C500EA48
:0108C600032E
:0108C700032D
:0108C8005FD0
:0108C900EA44
:0108CA00C16C
:0108CB006CC0
:0108CC0048E3
:0108CD00BF6B
:0108CE0083A6
:0108CF00F038
:0108D0001017
:0108D1000323
:0108D200899C
:0108D300061E
:0108D40048DB
:0108D500BF63
:0108D600839E
:0108D700F030
:0108D80020FF
:0108D900031B
:0108DA00100D
:0108DB00E03C
:0108DC00DF3C
:0108DD00F822
:0108DE0048D1
:0108DF0021F7
:0108E00052C5
:0108E100F81E
:0108E20020F5
:0108E30030E4
:0108E4004BC8
:0108E500F61C
:0108E6008F82
:0108E7007C94
:0108E8000C03
:0108E900EA24
:0108EA00030A
:0108EB000309
:0108EC005FAC
:0108ED00EA20
:0108EE00C148
:0108EF004CBC
:0108F00048BF
:0108F100BF47
:0108F2008382
:0108F300F410
:0108F4008083
:0108F50053AF
:0108F6008978
:0108F70004FC
:0108F80048B7
:0108F900BF3F
:0108FA00837A
:0108FB00F408
:0108FC0000FB
:0108FD0053A7
:0108FE0042B7
:0108FF00F800
:0109000020D6
:0109010030C5
:010902007084
:0109030047AC
:01090400DF13
:01090500F8F9
:0109060020D0
:0109070011DE
:01090800519D
:01090900F8F5
:01090A0020CC
:01090B0020CB
:01090C004B9F
:01090D00F6F3
:01090E008F59
:01090F007374
:010910001ACC
:0109110040A5
:010912008262
:01091300F4EF
:0109140040A2
:01091500528F
:0109160007D9
:01091700E0FF
:01091800DFFF
:01091900F8E5
:01091A000CD0
:01091B0011CA
:01091C005189
:01091D00F8E1
:01091E0020B8
:01091F0020B7
:01092000488E
:01092100F6DF
:010922008F45
:010923006370
:01092400FFD3
:01092500E7EA
:010926001AB6
:01092700408F
:01092800418D
:01092900F8D5
:01092A0020AC
:01092B0020AB
:01092C00705A
:01092D004782
:01092E00DFE9
:01092F00F8CF
:01093000F8CE
:0109310010B5
:010932005173
:01093300F8CB
:0109340020A2
:0109350020A1
:01093600526E
:0109370004BB
:0109380008B6
:01093900D5E8
:01093A00516B
:01093B00F8C3
:01093C00209A
:01093D002099
:01093E004870
:01093F00F6C1
:010940008F27
:010941007342
:010942001A9A
:010943004073
:010944004270
:01094500F4BD
:010946008030
:01094700426D
:01094800416D
:01094900F8B5
:01094A00208C
:01094B00208B
:01094C00703A
:01094D004762
:01094E00DFC9
:01094F00F8AF
:01095000D8CE
:010951001095
:010952005153
:01095300F8AB
:010954002082
:010955002081
:01095600524E
:010957000699
:010958000896
:01095900D5C8
:01095A00514B
:01095B00F8A3
:01095C00207A
:01095D002079
:01095E004850
:01095F00F6A1
:010960008F07
:010961007322
:010962001A7A
:010963004053
:010964004250
:01096500F0A1
:010966004050
:01096700028D
:01096800414D
:01096900F895
:01096A00206C
:01096B00206B
:01096C00701A
:01096D004742
:01096E000C7C
:01096F00EA9D
:010970000383
:010971000382
:01097200196B
:010973004340
:010974004240
:01097500F889
:010976002060
:01097700106F
:01097800700E
:010979004736
:01097A003844
:01097B00E09B
:01097C002951
:01097D004A2F
:01097E001266
:01097F00680F
:0109800092E4
:01098100B2C3
:010982000272
:01098300EB88
:01098400C0B2
:010985000071
:010986002947
:010987004A25
:010988003737
:01098900E08D
:01098A003B31
:01098B00E08B
:01098C002545
:01098D004920
:01098E00095F
:01098F0068FF
:0109900089DD
:01099100B2B3
:010992000163
:01099300EB78
:01099400C0A2
:010995000061
:01099600253B
:010997004916
:010998003A24
:01099900E07D
:01099A00223A
:01099B004A11
:01099C001248
:01099D0068F1
:01099E0092C6
:01099F00B2A5
:0109A0000254
:0109A100EB6A
:0109A200C094
:0109A3000053
:0109A4002230
:0109A5004A07
:0109A6002A26
:0109A700E06F
:0109A8001E30
:0109A9004A03
:0109AA00123A
:0109AB0068E3
:0109AC0092B8
:0109AD00B297
:0109AE000246
:0109AF00EB5C
:0109B000C086
:0109B1000045
:0109B2002024
:0109B3004AF9
:0109B4000240
:0109B500EB56
:0109B6004000
:0109B700003F
:0109B8003FFF
:0109B9002914
:0109BA000933
:0109BB00DB60
:0109BC004AF0
:0109BD000930
:0109BE001F19
:0109BF002314
:0109C000191D
:0109C10042F3
:0109C200082C
:0109C300BF74
:0109C40052E0
:0109C5001E13
:0109C600121E
:0109C700042B
:0109C800919D
:0109C9000924
:0109CA0041EB
:0109CB00F437
:0109CC00002A
:0109CD0041E8
:0109CE000523
:0109CF00E047
:0109D0004ADC
:0109D100081D
:0109D200C95B
:0109D300071C
:0109D40048DA
:0109D500BF62
:0109D60052CE
:0109D7001C03
:0109D800120C
:0109D9000419
:0109DA00918B
:0109DB000912
:0109DC000119
:0109DD0060B9
:0109DE0070A8
:0109DF0047D0
:0109E0001006
:0109E10049CC
:0109E200090B
:0109E30068AB
:0109E4008989
:0109E500B25F
:0109E600010F
:0109E700EB24
:0109E800C04E
:0109E900000D
:0109EA0012FA
:0109EB0049C2
:0109EC0014F6
:0109ED00E029
:0109EE000DFB
:0109EF004ABD
:0109F00012F4
:0109F100689D
:0109F2009272
:0109F300B251
:0109F4000200
:0109F500EB16
:0109F600C040
:0109F70000FF
:0109F8000FEF
:0109F9004AB3
:0109FA0049B3
:0109FB0008F3
:0109FC0049B1
:0109FD0000F9
:0109FE0042B6
:0109FF00F8FF
:010A000010E5
:010A010010E4
:010A02007083
:010A030047AB
:010A040007EA
:010A050049A7
:010A060009E6
:010A07006886
:010A08008964
:010A0900B23A
:010A0A0001EA
:010A0B00EBFF
:010A0C00C029
:010A0D0000E8
:010A0E000ADD
:010A0F00499D
:010A10005194
:010A1100F8EC
:010A120010D3
:010A130000E2
:010A14008061
:010A1500B22E
:010A1600706F
:010A17004797
:010A1800518C
:010A1900F8E4
:010A1A0010CB
:010A1B0000DA
:010A1C008059
:010A1D0005D3
:010A1E008057
:010A1F000DC9
:010A20007065
:010A2100478D
:010A220000D3
:010A230000D2
:010A24005081
:010A25005C74
:010A260000CF
:010A2700408E
:010A280000CD
:010A29005C70
:010A2A0000CB
:010A2B00408A
:010A2C0008C1
:010A2D006068
:010A2E0000C7
:010A2F004086
:010A300004C1
:010A31006064
:010A320000C3
:010A33004082
:010A34000CB5
:010A35006060
:010A360000BF
:010A3700407E
:010A380000BD
:010A3900605C
:010A3A0000BB
:010A3B00407A
:010A3C0001B8
:010A3D0006B2
:010A3E0009AE
:010A3F000CAA
:010A40004174
:010A4100EACA
:010A420010A3
:010A43002092
:010A44007041
:010A45004769
:010A46004966
:010A470000AE
:010A480001AC
:010A4900F1BB
:010A4A00802B
:010A4B004169
:010A4C005257
:010A4D001C8C
:010A4E0001A6
:010A4F00F5B1
:010A5000C0E5
:010A51004163
:010A52005251
:010A53001092
:010A54000A97
:010A5500D1CF
:010A5600702F
:010A57004757
:010A5800108D
:010A5900F8A4
:010A5A00019A
:010A5B003B5F
:010A5C001089
:010A5D00F8A0
:010A5E000196
:010A5F00CBCB
:010A60004352
:010A6100EAAA
:010A62000C87
:010A6300236F
:010A64002170
:010A6500F898
:010A6600028D
:010A67003B53
:010A68008904
:010A69001C70
:010A6A005239
:010A6B001E6C
:010A6C000089
:010A6D002A5E
:010A6E00F394
:010A6F00D1B5
:010A70007015
:010A7100473D
:010A7200493A
:010A73000082
:010A74000180
:010A7500F18F
:010A760080FF
:010A7700413D
:010A7800522B
:010A79001C60
:010A7A00017A
:010A7B00F585
:010A7C00C0B9
:010A7D004137
:010A7E005225
:010A7F001066
:010A80000570
:010A8100D1A3
:010A82007003
:010A8300472B
:010A84005120
:010A8500F878
:010A8600046B
:010A87003B33
:010A8800204D
:010A8900F874
:010A8A000269
:010A8B003B2F
:010A8C005217
:010A8D001E4A
:010A8E000067
:010A8F002A3C
:010A9000F86D
:010A9100D193
:010A920070F3
:010A9300471B
:010A9400F071
:010A9500B5AB
:010A9600045B
:010A970068F6
:010A9800421B
:010A990068F4
:010A9A0083D8
:010A9B0068F2
:010A9C00C099
:010A9D0068F0
:010A9E00DF78
:010A9F00F85E
:010AA0000C49
:010AA10056FE
:010AA200DF74
:010AA300F85A
:010AA4000C45
:010AA50076DA
:010AA6000C43
:010AA70060EE
:010AA8004A03
:010AA90060EC
:010AAA008BC0
:010AAB0060EA
:010AAC00C881
:010AAD0060E8
:010AAE000A3D
:010AAF002620
:010AB000C085
:010AB100F351
:010AB200073C
:010AB3002E14
:010AB400C081
:010AB500F34D
:010AB6000738
:010AB7004CF2
:010AB8001E1F
:010AB900F844
:010ABA000734
:010ABB00E05A
:010ABC001C1D
:010ABD00F840
:010ABE000730
:010ABF00C076
:010AC0004FE6
:010AC100EA4A
:010AC2000E25
:010AC3004EE4
:010AC4004EE3
:010AC500EA46
:010AC6000C23
:010AC7006CC2
:010AC8005FCE
:010AC900FA32
:010ACA0080AB
:010ACB00FE2C
:010ACC001E0B
:010ACD00F830
:010ACE000720
:010ACF00E046
:010AD0004CD9
:010AD100EA3A
:010AD2000E15
:010AD3002CF6
:010AD4004FD2
:010AD500EA36
:010AD600100F
:010AD7006EB0
:010AD8001EFF
:010AD900F824
:010ADA000714
:010ADB00E03A
:010ADC004ECB
:010ADD00EA2E
:010ADE000C0B
:010ADF000C0A
:010AE00055C0
:010AE100F81C
:010AE200040F
:010AE300EB27
:010AE4008E83
:010AE500EA26
:010AE6000C03
:010AE7000C02
:010AE8008C81
:010AE900EA22
:010AEA000407
:010AEB000406
:010AEC0062A7
:010AED0040C8
:010AEE0041C6
:010AEF00F80E
:010AF00010F5
:010AF1004FB5
:010AF20053B0
:010AF30040C2
:010AF4004AB7
:010AF50060A0
:010AF60058A7
:010AF70040BE
:010AF8008B72
:010AF900609C
:010AFA00C833
:010AFB00609A
:010AFC007683
:010AFD001EDA
:010AFE00D720
:010AFF00D125
:010B0000F004
:010B0100BD36
:010B0200C72B
:010B0300E70A
:010B04002DC3
:010B0500E906
:010B0600F0FE
:010B07004F9E
:010B080003E9
:010B09006883
:010B0A005298
:010B0B00F8F1
:010B0C00A048
:010B0D004F98
:010B0E008462
:010B0F00EAFB
:010B100003E1
:010B11000ED5
:010B1200439F
:010B13006879
:010B1400548C
:010B15006877
:010B1600845A
:010B1700EAF3
:010B180003D9
:010B190008D3
:010B1A008357
:010B1B006871
:010B1C009444
:010B1D00686F
:010B1E00C016
:010B1F00686D
:010B20008450
:010B2100EAE9
:010B220003CF
:010B230009C8
:010B2400D3FD
:010B25006867
:010B2600DFEF
:010B2700F8D5
:010B28008C40
:010B29004586
:010B2A008347
:010B2B00EADF
:010B2C0000C8
:010B2D000CBB
:010B2E00A224
:010B2F00F1D4
:010B300020A4
:010B310000C3
:010B320009B9
:010B3300229F
:010B34001BA5
:010B3500239C
:010B3600CCF2
:010B3700F3CA
:010B380007B5
:010B39004675
:010B3A004F6B
:010B3B00EACF
:010B3C001E9A
:010B3D006552
:010B3E003680
:010B3F005D58
:010B40002D87
:010B41005D56
:010B4200367C
:010B430004AD
:010B4400466A
:010B4500EAC5
:010B460005A9
:010B47006548
:010B4800C9E3
:010B4900F3B8
:010B4A0007A3
:010B4B002683
:010B4C00CEDA
:010B4D00F3B4
:010B4E00079F
:010B4F00475E
:010B5000366E
:010B51005D46
:010B52003F63
:010B53005D44
:010B5400455B
:010B5500EAB5
:010B56000698
:010B57002578
:010B58005F3D
:010B5900FAA1
:010B5A008812
:010B5B00F6A3
:010B5C003F59
:010B5D000493
:010B5E003660
:010B5F005D38
:010B6000355F
:010B61004350
:010B6200068C
:010B63006928
:010B6400751B
:010B6500404F
:010B66004F3F
:010B6700EAA3
:010B68001874
:010B69006625
:010B6A00C8C2
:010B6B00F396
:010B6C000781
:010B6D004A3D
:010B6E003650
:010B6F005D28
:010B70001A6A
:010B7100F88B
:010B7200047E
:010B7300A0E1
:010B74004739
:010B7500EA95
:010B76000678
:010B77006617
:010B7800CCB0
:010B7900F388
:010B7A000773
:010B7B002752
:010B7C004F29
:010B7D00EA8D
:010B7E000A6C
:010B7F004A2B
:010B80003F35
:010B81005D16
:010B8200462C
:010B8300EA87
:010B84000769
:010B85002649
:010B86005F0F
:010B8700FA73
:010B880089E3
:010B8900F774
:010B8A00C8A2
:010B8B00F376
:010B8C000761
:010B8D00283F
:010B8E003F27
:010B8F005D08
:010B9000184C
:010B9100F86B
:010B9200045E
:010B930080E1
:010B94003E22
:010B9500431C
:010B96004717
:010B970069F4
:010B98007EDE
:010B9900401B
:010B9A004F0B
:010B9B00EA6F
:010B9C00193F
:010B9D0067F0
:010B9E00C98D
:010B9F00F362
:010BA000074D
:010BA100490A
:010BA2003F13
:010BA3005DF4
:010BA4001937
:010BA500F857
:010BA600044A
:010BA70090BD
:010BA8004A02
:010BA900EA61
:010BAA000743
:010BAB0067E2
:010BAC00CE7A
:010BAD00F354
:010BAE00073F
:010BAF002A1B
:010BB0005FE5
:010BB100FA49
:010BB2008EB4
:010BB300FE43
:010BB4001A26
:010BB500F847
:010BB600043A
:010BB700A09D
:010BB8001E1E
:010BB900F843
:010BBA000436
:010BBB00E059
:010BBC0047F1
:010BBD00EA4D
:010BBE000A2C
:010BBF00270E
:010BC0005FD5
:010BC100FA39
:010BC2008CA6
:010BC300FA37
:010BC4004FE1
:010BC500EA45
:010BC6001C12
:010BC7006CC1
:010BC8004FDD
:010BC900EA41
:010BCA000921
:010BCB0049E0
:010BCC001C0C
:010BCD00F82F
:010BCE000422
:010BCF00C065
:010BD0001A0A
:010BD100F82B
:010BD200041E
:010BD300A081
:010BD40049D7
:010BD500EA35
:010BD6000C12
:010BD7006CB1
:010BD8004CD0
:010BD900EA31
:010BDA000812
:010BDB002CED
:010BDC004ECA
:010BDD00EA2D
:010BDE000C0A
:010BDF000C09
:010BE000D044
:010BE100F81B
:010BE2001CF6
:010BE300E031
:010BE4004FC1
:010BE500EA25
:010BE600D539
:010BE70018F5
:010BE8008E7E
:010BE900EA21
:010BEA000CFE
:010BEB000CFD
:010BEC000800
:010BED00F017
:010BEE000105
:010BEF0038CD
:010BF00005FF
:010BF100F013
:010BF2007F83
:010BF3003EC3
:010BF40003FD
:010BF500FB04
:010BF60008F6
:010BF700F805
:010BF8008874
:010BF900EA11
:010BFA004EAC
:010BFB000EEB
:010BFC004AAE
:010BFD00EA0D
:010BFE0007EF
:010BFF0007EE
:010C00004FA4
:010C0100EA08
:010C0200DE13
:010C030019D7
:010C0400D01F
:010C0500F8F6
:010C060018D5
:010C0700A04C
:010C080009E2
:010C0900F0FA
:010C0A0001E8
:010C0B0039AF
:010C0C000ED9
:010C0D00F0F6
:010C0E007F66
:010C0F0038AC
:010C100003E0
:010C1100FBE7
:010C120009D8
:010C1300F9E7
:010C14008A55
:010C1500EAF4
:010C160007D6
:010C170007D5
:010C18008952
:010C1900EAF0
:010C1A004891
:010C1B0008D0
:010C1C004F88
:010C1D00EAEC
:010C1E00D8FD
:010C1F001ABA
:010C20000AC9
:010C2100F0E2
:010C220001D0
:010C23003A96
:010C240008C7
:010C2500F0DE
:010C26007F4E
:010C27003993
:010C280003C8
:010C2900FBCF
:010C2A000ABF
:010C2B00FACE
:010C2C008A3D
:010C2D00EADC
:010C2E00497C
:010C2F0009BB
:010C3000893A
:010C3100EAD8
:010C320005BC
:010C330005BB
:010C3400853A
:010C3500EAD4
:010C36000EAF
:010C37000BB1
:010C38008833
:010C3900EAD0
:010C3A000EAB
:010C3B000EAA
:010C3C00892E
:010C3D00EACC
:010C3E000EA7
:010C3F000EA6
:010C4000852E
:010C4100EAC8
:010C420008A9
:010C43000AA6
:010C44008E21
:010C4500EAC4
:010C46003B72
:010C47006E3E
:010C48008E1D
:010C4900EAC0
:010C4A003A6F
:010C4B004E5A
:010C4C004F58
:010C4D00EABC
:010C4E00D6CF
:010C4F00188C
:010C50008E15
:010C5100EAB8
:010C5200356C
:010C53002E72
:010C54000897
:010C5500F0AE
:010C5600019C
:010C57003864
:010C58000695
:010C5900F0AA
:010C5A007F1A
:010C5B003563
:010C5C000394
:010C5D00FB9B
:010C5E00088D
:010C5F00F89C
:010C6000880B
:010C6100EAA8
:010C6200454C
:010C6300058B
:010C64004F40
:010C6500EAA4
:010C6600D5B8
:010C67001973
:010C68000982
:010C6900F09A
:010C6A000188
:010C6B00394F
:010C6C000582
:010C6D00F096
:010C6E007F06
:010C6F00384C
:010C70000380
:010C7100FB87
:010C72000978
:010C7300F987
:010C740089F6
:010C7500EA94
:010C76004835
:010C77000874
:010C78004F2C
:010C7900EA90
:010C7A00D8A1
:010C7B001A5E
:010C7C000A6D
:010C7D00F086
:010C7E000174
:010C7F003A3A
:010C8000086B
:010C8100F082
:010C82007FF2
:010C83003937
:010C8400036C
:010C8500FB73
:010C86000A63
:010C8700FA72
:010C88008AE1
:010C8900EA80
:010C8A004920
:010C8B00095F
:010C8C0089DE
:010C8D00EA7C
:010C8E00065F
:010C8F00065E
:010C900086DD
:010C9100EA78
:010C9200055C
:010C93000B55
:010C940088D7
:010C9500EA74
:010C96000558
:010C97000557
:010C980089D2
:010C9900EA70
:010C9A000554
:010C9B000553
:010C9C0086D1
:010C9D00EA6C
:010C9E00084D
:010C9F000A4A
:010CA00085CE
:010CA100EA68
:010CA2003B16
:010CA30065EB
:010CA40085CA
:010CA500EA64
:010CA6003A13
:010CA7004507
:010CA80085C6
:010CA900EA60
:010CAA003613
:010CAB002820
:010CAC00FE49
:010CAD00093D
:010CAE00063F
:010CAF00F054
:010CB0000142
:010CB100360C
:010CB200073A
:010CB300F050
:010CB4007FC0
:010CB5003509
:010CB6005EDF
:010CB70043F9
:010CB80086B5
:010CB900EA50
:010CBA0045F4
:010CBB000533
:010CBC004FE8
:010CBD00EA4C
:010CBE00D560
:010CBF00191B
:010CC000092A
:010CC100F042
:010CC2000130
:010CC30039F7
:010CC400052A
:010CC500F03E
:010CC6007FAE
:010CC70036F6
:010CC8000328
:010CC900FB2F
:010CCA000920
:010CCB00F92F
:010CCC00899E
:010CCD00EA3C
:010CCE0046DF
:010CCF00061E
:010CD0004FD4
:010CD100EA38
:010CD200D64B
:010CD3001A06
:010CD4000A15
:010CD500F02E
:010CD600011C
:010CD7003AE2
:010CD8000615
:010CD900F02A
:010CDA007F9A
:010CDB0039DF
:010CDC000314
:010CDD00FB1B
:010CDE000A0B
:010CDF00FA1A
:010CE0008A89
:010CE100EA28
:010CE20049C8
:010CE3000907
:010CE4008986
:010CE500EA24
:010CE6000706
:010CE7000705
:010CE8008784
:010CE900EA20
:010CEA000504
:010CEB000BFD
:010CEC007592
:010CED0040C6
:010CEE00897C
:010CEF00EA1A
:010CF00005FE
:010CF10005FD
:010CF200877A
:010CF300EA16
:010CF40006F9
:010CF5000AF4
:010CF6008578
:010CF700EA12
:010CF8003BC0
:010CF9006595
:010CFA008574
:010CFB00EA0E
:010CFC003ABD
:010CFD0045B1
:010CFE004FA6
:010CFF00EA0A
:010D0000DC16
:010D010016DB
:010D0200856B
:010D0300EA05
:010D040037B7
:010D050029C4
:010D060006E6
:010D0700F0FB
:010D080001E9
:010D090036B3
:010D0A000CDC
:010D0B00F0F7
:010D0C007F67
:010D0D0035B0
:010D0E005E86
:010D0F0043A0
:010D1000865C
:010D1100EAF7
:010D1200459B
:010D130005DA
:010D1400EFEF
:010D150009D4
:010D160007D5
:010D1700F0EB
:010D180001D9
:010D190037A2
:010D1A0005D3
:010D1B00F0E7
:010D1C007F57
:010D1D00369F
:010D1E005F75
:010D1F004390
:010D2000874B
:010D2100EAE7
:010D2200468A
:010D230006C9
:010D24004F7F
:010D2500EAE3
:010D2600D6F6
:010D27001AB1
:010D28000AC0
:010D2900F0D9
:010D2A0001C7
:010D2B003A8D
:010D2C0006C0
:010D2D00F0D5
:010D2E007F45
:010D2F00378C
:010D300003BF
:010D3100FBC6
:010D32000AB6
:010D3300FAC5
:010D34008A34
:010D3500EAD3
:010D36004775
:010D370007B4
:010D38008733
:010D3900EACF
:010D3A000CAC
:010D3B000CAB
:010D3C008C2A
:010D3D00EACB
:010D3E0005AF
:010D3F000BA8
:010D4000753D
:010D41004071
:010D42007D33
:010D4300406F
:010D44008C22
:010D4500EAC3
:010D460006A6
:010D47000AA1
:010D48008525
:010D4900EABF
:010D4A003B6D
:010D4B006542
:010D4C008521
:010D4D00EABB
:010D4E003A6A
:010D4F00455E
:010D50001092
:010D51003869
:010D5200851B
:010D5300EAB5
:010D54003C62
:010D55002C71
:010D5600524A
:010D57001E7D
:010D58007F1B
:010D5900F4A5
:010D5A00EDAB
:010D5B00AEE9
:010D5C00CEC8
:010D5D00F3A2
:010D5E00078D
:010D5F004350
:010D60004F43
:010D6100EAA7
:010D62001878
:010D6300622D
:010D64001B73
:010D65005D30
:010D6600127A
:010D67005D2E
:010D68001B6F
:010D69000485
:010D6A004345
:010D6B00EA9D
:010D6C000284
:010D6D006223
:010D6E00CCB8
:010D6F00F390
:010D7000077B
:010D7100235E
:010D7200C8B8
:010D7300F38C
:010D74000777
:010D75004538
:010D76001B61
:010D77005D1E
:010D78002D4D
:010D79005D1C
:010D7A004236
:010D7B00EA8D
:010D7C000373
:010D7D002253
:010D7E005F15
:010D7F00FA79
:010D800089E9
:010D8100F37E
:010D82002D43
:010D8300046B
:010D84001B53
:010D85005D10
:010D86001A52
:010D87004328
:010D88004327
:010D89006900
:010D8A005A0E
:010D8B004027
:010D8C004F17
:010D8D00EA7B
:010D8E00194B
:010D8F006300
:010D9000C999
:010D9100F36E
:010D92000759
:010D93004619
:010D94001B43
:010D95005D00
:010D96003626
:010D97005DFE
:010D98004515
:010D9900EA6F
:010D9A000355
:010D9B0063F4
:010D9C00CE88
:010D9D00F362
:010D9E00074D
:010D9F00252E
:010DA000361C
:010DA100044D
:010DA2002D23
:010DA3005DF2
:010DA400430B
:010DA500EA63
:010DA6000547
:010DA7002328
:010DA8005FEB
:010DA900FA4F
:010DAA008CBC
:010DAB00F552
:010DAC00CC7A
:010DAD00F352
:010DAE00073D
:010DAF0047FC
:010DB0002D15
:010DB1005DE4
:010DB2003F01
:010DB3005DE2
:010DB4002B13
:010DB50043FA
:010DB60085B7
:010DB70069D2
:010DB8006BCF
:010DB90040F9
:010DBA004FE9
:010DBB00EA4D
:010DBC001C1A
:010DBD0065D0
:010DBE003FF5
:010DBF00042F
:010DC0002D05
:010DC1005DD4
:010DC20046EA
:010DC300EA45
:010DC4000529
:010DC50065C8
:010DC600C864
:010DC700F338
:010DC8000723
:010DC9002603
:010DCA0036F2
:010DCB005DCA
:010DCC0045E1
:010DCD00EA3B
:010DCE00061E
:010DCF0025FE
:010DD0005FC3
:010DD100FA27
:010DD2008E92
:010DD300F629
:010DD40036E8
:010DD5005DC0
:010DD60035E7
:010DD70043D8
:010DD800C654
:010DD90069B0
:010DDA000018
:010DDB0069AE
:010DDC0075A1
:010DDD0040D5
:010DDE004FC5
:010DDF00EA29
:010DE0001EF4
:010DE10066AB
:010DE20036DA
:010DE3005DB2
:010DE40047C7
:010DE500EA23
:010DE6000606
:010DE70066A5
:010DE800C941
:010DE900F316
:010DEA000701
:010DEB0027E0
:010DEC003FC7
:010DED005DA8
:010DEE0046BE
:010DEF00EA19
:010DF00007FB
:010DF10026DB
:010DF2005FA1
:010DF300FA05
:010DF4008876
:010DF500F706
:010DF6003CC0
:010DF7005D9E
:010DF80034C6
:010DF90043B6
:010DFA006098
:010DFB0040B7
:010DFC0008EE
:010DFD006095
:010DFE004AAA
:010DFF006093
:010E00008B66
:010E01006090
:010E0200CD22
:010E0300608E
:010E0400BD30
:010E0500E804
:010E0600F0FB
:010E07008F5B
:010E08002DBC
:010E0900E9FF
:010E0A00F0F7
:010E0B00479F
:010E0C0003E2
:010E0D00687C
:010E0E0014CF
:010E0F00687A
:010E1000558C
:010E11006878
:010E12009649
:010E13006876
:010E1400A637
:010E15004F8D
:010E16006378
:010E1700409A
:010E18004495
:010E19006870
:010E1A006C6B
:010E1B004096
:010E1C008550
:010E1D00686C
:010E1E00C013
:010E1F00686A
:010E2000755C
:010E21004090
:010E2200D6F9
:010E23006866
:010E24008647
:010E2500EAE2
:010E260000CB
:010E270009C1
:010E280002C7
:010E2900F1D7
:010E2A0010B7
:010E2B0000C6
:010E2C0009BC
:010E2D0022A2
:010E2E001BA8
:010E2F00269C
:010E3000C4FD
:010E3100F3CD
:010E320007B8
:010E33004E70
:010E34004F6E
:010E3500EAD2
:010E360013A8
:010E37006C4E
:010E38001E9B
:010E3900F8C0
:010E3A0007B0
:010E3B00E0D6
:010E3C001C99
:010E3D00F8BC
:010E3E0007AC
:010E3F00C0F2
:010E40004F62
:010E4100EAC6
:010E42000EA1
:010E43004E60
:010E44004E5F
:010E4500EAC2
:010E46000C9F
:010E47006C3E
:010E4800C5E4
:010E4900F3B5
:010E4A0007A0
:010E4B002E78
:010E4C00C5E0
:010E4D00F3B1
:010E4E00079C
:010E4F00485A
:010E50001E83
:010E5100F8A8
:010E52000798
:010E5300E0BE
:010E54001885
:010E5500F8A4
:010E56000794
:010E5700801A
:010E58004C4D
:010E5900EAAE
:010E5A000E89
:010E5B002C6A
:010E5C005F36
:010E5D00FA9A
:010E5E00890A
:010E5F00FE94
:010E60004F42
:010E6100EAA6
:010E62000887
:010E63004846
:010E64001E6F
:010E6500F894
:010E66000784
:010E6700E0AA
:010E68004E3B
:010E6900EA9E
:010E6A000C7B
:010E6B000C7A
:010E6C004F36
:010E6D00EA9A
:010E6E00146F
:010E6F006E14
:010E7000C9B8
:010E7100F38D
:010E72000778
:010E73004A34
:010E74001E5F
:010E7500F884
:010E76000774
:010E7700E09A
:010E78001A5F
:010E7900F880
:010E7A000770
:010E7B00A0D6
:010E7C00482D
:010E7D00EA8A
:010E7E000E65
:010E7F006E04
:010E8000C9A8
:010E8100F37D
:010E82000768
:010E83002846
:010E84004F1E
:010E8500EA82
:010E86000A61
:010E87004A20
:010E88001851
:010E8900F870
:010E8A000760
:010E8B0080E6
:010E8C004E17
:010E8D00EA7A
:010E8E00085B
:010E8F002E34
:010E90005F02
:010E9100FA66
:010E920083DC
:010E9300F866
:010E94004F0E
:010E9500EA72
:010E96001942
:010E970069F1
:010E98001841
:010E9900F860
:010E9A000750
:010E9B0080D6
:010E9C00193C
:010E9D00F85C
:010E9E00074C
:010E9F0090C2
:010EA0004809
:010EA100EA66
:010EA2000E41
:010EA3000E40
:010EA4004FFE
:010EA500EA62
:010EA6001536
:010EA70068E2
:010EA8001831
:010EA900F850
:010EAA000740
:010EAB0080C6
:010EAC004AFB
:010EAD00EA5A
:010EAE00083B
:010EAF0068DA
:010EB000C37E
:010EB100F34D
:010EB2000738
:010EB3002A14
:010EB400C37A
:010EB500F349
:010EB6000734
:010EB70043F7
:010EB8001A1F
:010EB900F840
:010EBA000730
:010EBB00A096
:010EBC00DB5A
:010EBD005DD7
:010EBE0048EB
:010EBF00EA48
:010EC0000A27
:010EC1002808
:010EC2005FD0
:010EC300FA34
:010EC40084A9
:010EC500FA32
:010EC600C467
:010EC700F337
:010EC8000722
:010EC9002404
:010ECA001B0C
:010ECB000422
:010ECC00E441
:010ECD005DC7
:010ECE001A09
:010ECF00F82A
:010ED000071A
:010ED100A080
:010ED20043DC
:010ED300EA34
:010ED4000914
:010ED50063B9
:010ED60043D8
:010ED700EA30
:010ED8000415
:010ED90023F5
:010EDA00EC2B
:010EDB00B264
:010EDC004ACB
:010EDD00EA2A
:010EDE00080B
:010EDF00080A
:010EE000E42D
:010EE1005DB3
:010EE20044CB
:010EE300EA24
:010EE400030A
:010EE5000903
:010EE6004FBC
:010EE700EA20
:010EE800DC2D
:010EE90013F5
:010EEA000304
:010EEB00F016
:010EEC000104
:010EED0033D1
:010EEE007390
:010EEF0043BF
:010EF0000CF5
:010EF100F010
:010EF2007F80
:010EF30034CA
:010EF400CC31
:010EF500F309
:010EF60006F5
:010EF7006A90
:010EF8008376
:010EF900EA0E
:010EFA0044B3
:010EFB0005F1
:010EFC008C69
:010EFD00EA0A
:010EFE004AA9
:010EFF006A88
:010F0000836D
:010F0100EA05
:010F02000AE4
:010F03000AE3
:010F04008C60
:010F0500EA01
:010F060044A6
:010F070004E5
:010F08006385
:010F090040A7
:010F0A001BCB
:010F0B0002E3
:010F0C0043A1
:010F0D00EAF9
:010F0E001AC8
:010F0F00637E
:010F10006B75
:010F1100409F
:010F1200835B
:010F1300EAF3
:010F14003CA0
:010F15004398
:010F1600508A
:010F1700F8E1
:010F180004D4
:010F19004B8C
:010F1A008353
:010F1B00EAEB
:010F1C003C98
:010F1D0023B0
:010F1E00636F
:010F1F004091
:010F20004F81
:010F2100EAE5
:010F2200DEF0
:010F230014B9
:010F240004C8
:010F2500F0DB
:010F260001C9
:010F27003495
:010F28007454
:010F29004384
:010F2A000EB8
:010F2B00F0D5
:010F2C007F45
:010F2D00358E
:010F2E00CEF4
:010F2F00F3CE
:010F300006BA
:010F31006A55
:010F3200843A
:010F3300EAD3
:010F34004577
:010F35000CAF
:010F36008E2C
:010F3700EACF
:010F38004A6E
:010F39006A4D
:010F3A008432
:010F3B00EACB
:010F3C000AAA
:010F3D000AA9
:010F3E008E24
:010F3F00EAC7
:010F4000456B
:010F410005AA
:010F42006C42
:010F4300406D
:010F44002488
:010F450002A9
:010F46004466
:010F4700EABF
:010F48001A8E
:010F49006443
:010F4A008422
:010F4B00EABB
:010F4C000C98
:010F4D00049F
:010F4E00841E
:010F4F00EAB7
:010F50003E62
:010F5100445B
:010F5200504E
:010F5300F8A5
:010F54000498
:010F55005B40
:010F56008416
:010F5700EAAF
:010F58003E5A
:010F59002473
:010F5A006C2A
:010F5B004055
:010F5C004F45
:010F5D00EAA9
:010F5E00D8BA
:010F5F00157C
:010F6000058B
:010F6100F09F
:010F6200018D
:010F63003558
:010F64007517
:010F65004348
:010F66000882
:010F6700F099
:010F68007F09
:010F69003C4B
:010F6A00C8BE
:010F6B00F392
:010F6C00067E
:010F6D006A19
:010F6E0085FD
:010F6F00EA97
:010F70004C34
:010F71000E71
:010F720088F6
:010F7300EA93
:010F74004A32
:010F75006A11
:010F760085F5
:010F7700EA8F
:010F78000A6E
:010F79000A6D
:010F7A0088EE
:010F7B00EA8B
:010F7C004C28
:010F7D000C67
:010F7E0085ED
:010F7F00EA87
:010F80000C64
:010F8100056A
:010F82002D41
:010F8300026B
:010F84004527
:010F8500EA81
:010F86001A50
:010F87006504
:010F880085E3
:010F8900EA7D
:010F8A000E58
:010F8B000560
:010F8C0085DF
:010F8D00EA79
:010F8E00382A
:010F8F00451C
:010F90005010
:010F9100F867
:010F9200045A
:010F9300CB92
:010F940085D7
:010F9500EA71
:010F96003822
:010F97002534
:010F98008CCC
:010F9900EA6D
:010F9A000551
:010F9B000550
:010F9C004F05
:010F9D00EA69
:010F9E00D979
:010F9F001C35
:010FA0000C44
:010FA100F05F
:010FA200014D
:010FA3003C11
:010FA4000646
:010FA500FB50
:010FA6000C3E
:010FA700FC4D
:010FA800093F
:010FA900F057
:010FAA007FC7
:010FAB003E07
:010FAC00C97B
:010FAD00F350
:010FAE00063C
:010FAF006AD7
:010FB0008CB4
:010FB100EA55
:010FB2004EF0
:010FB3000835
:010FB40089B3
:010FB500EA51
:010FB6004AF0
:010FB7006ACF
:010FB8008CAC
:010FB900EA4D
:010FBA000A2C
:010FBB000A2B
:010FBC0089AB
:010FBD00EA49
:010FBE004EE4
:010FBF000E23
:010FC0008CA4
:010FC100EA45
:010FC2000E20
:010FC3000C21
:010FC4004FDD
:010FC500EA41
:010FC6000C1E
:010FC7002CFD
:010FC8004CDC
:010FC900EA3D
:010FCA001A0C
:010FCB006CB9
:010FCC008C98
:010FCD00EA39
:010FCE00081A
:010FCF000C15
:010FD0008C94
:010FD100EA35
:010FD20039E5
:010FD3004CD1
:010FD40050CC
:010FD500F823
:010FD6000416
:010FD700EB2E
:010FD8008C8C
:010FD900EA2D
:010FDA0039DD
:010FDB002CE9
:010FDC008E86
:010FDD00EA29
:010FDE000C06
:010FDF000908
:010FE00052BE
:010FE1001EF1
:010FE2007F8F
:010FE300F419
:010FE40025E7
:010FE500AF5C
:010FE600C545
:010FE700F316
:010FE8000701
:010FE90046C1
:010FEA0022E4
:010FEB000EF7
:010FEC00F60E
:010FED005DA6
:010FEE00D230
:010FEF005DA4
:010FF00036CA
:010FF10004FB
:010FF20046B8
:010FF300EA13
:010FF40002FA
:010FF5006299
:010FF600C931
:010FF700F306
:010FF80007F1
:010FF90026D1
:010FFA00C92D
:010FFB00F302
:010FFC0007ED
:010FFD004CA7
:010FFE00F6FC
:010FFF005D94
:011000001CD3
:01100100F8F6
:0110020007E6
:01100300C02C
:0110040042A9
:01100500EA00
:0110060006E3
:0110070022C6
:01100800DE09
:01100900B234
:01100A004F96
:01100B00EAFA
:01100C000CD7
:01100D004C96
:01100E00F6EB
:01100F005D83
:0110100032AD
:01101100439B
:011012004697
:011013006874
:011014007269
:01101500409A
:011016002EAB
:011017000ECA
:01101800C314
:01101900F3E3
:01101A0007CE
:01101B004E86
:01101C00F6DD
:01101D005D75
:01101E001EB3
:01101F00F8D8
:0110200007C8
:01102100E0EE
:011022004C81
:01102300EAE2
:0110240006C5
:011025006664
:01102600C306
:01102700F3D5
:0110280007C0
:011029002C9A
:01102A004F76
:01102B00EADA
:01102C000EB5
:01102D004E74
:01102E001CA5
:01102F00F8C8
:0110300007B8
:01103100C0FE
:011032004677
:01103300EAD2
:011034000CAF
:011035002694
:011036005F5A
:01103700FABE
:011038008433
:01103900FCBA
:01103A001B9A
:01103B000EA6
:01103C001C97
:01103D00F8BA
:01103E0007AA
:01103F00C0F0
:01104000DBD4
:011041005D51
:011042004C61
:01104300EAC2
:0110440006A5
:0110450006A4
:01104600D0D9
:01104700F8B0
:01104800089F
:01104900C0E6
:01104A008C19
:01104B00EABA
:01104C00069D
:01104D00069C
:01104E004F52
:01104F00EAB6
:011050001986
:011051006C32
:011052001C81
:01105300F8A4
:011054000794
:01105500C0DA
:011056004E4B
:01105700EAAE
:011058000C8B
:011059006C2A
:01105A00C4D1
:01105B00F3A1
:01105C00078C
:01105D002E64
:01105E00C4CD
:01105F00F39D
:011060000788
:01106100444A
:01106200E4A9
:011063005D2F
:011064001E6D
:01106500F892
:011066000782
:01106700E0A8
:011068002463
:011069000482
:01106A004441
:01106B00EA9A
:01106C000380
:01106D00631F
:01106E004C35
:01106F00EA96
:011070000E71
:011071002C52
:01107200C5B8
:01107300F389
:011074000774
:011075002456
:011076005F1A
:01107700FA7E
:0110780085F2
:01107900FE78
:01107A00E491
:01107B005D17
:01107C001E55
:01107D00F87A
:01107E00076A
:01107F00E090
:01108000432C
:01108100EA84
:011082000469
:011083002349
:011084004E1D
:01108500EA80
:011086000C5D
:011087000C5C
:011088005F08
:01108900FA6C
:01108A0089DC
:01108B00F470
:01108C00D093
:01108D00F86A
:01108E000C55
:01108F00E080
:01109000E47B
:011091005D01
:01109200005D
:0110930068F4
:011094002338
:011095004317
:011096005801
:011097004018
:01109800084F
:0110990060F6
:01109A004A0B
:01109B0060F4
:01109C008EC5
:01109D00EA68
:01109E000C45
:01109F000C44
:0110A0008EC1
:0110A10060EE
:0110A200C18C
:0110A300F854
:0110A4000C3F
:0110A500C08A
:0110A600BD8C
:0110A700E860
:0110A800F057
:0110A90087BF
:0110AA000045
:0110AB000044
:0110AC0064DF
:0110AD000240
:0110AE000041
:0110AF002020
:0110B000003F
:0110B100003E
:0110B200003D
:0110B300201C
:0110B400003B
:0110B5000139
:0110B6000039
:0110B7002018
:0110B8002D0A
:0110B900E94D
:0110BA00F045
:0110BB004FE5
:0110BC0093A0
:0110BD00B082
:0110BE0080B1
:0110BF0046EA
:0110C000022D
:0110C100AE80
:0110C200002D
:0110C300200C
:0110C4001417
:0110C50046E4
:0110C6001D0C
:0110C70046E2
:0110C8000225
:0110C9009195
:0110CA00B075
:0110CB0061C3
:0110CC000D16
:0110CD00F131
:0110CE0030F1
:0110CF000A16
:0110D0000A15
:0110D100E03E
:0110D2001409
:0110D300F824
:0110D400011A
:0110D5001BFF
:0110D6000217
:0110D7009880
:0110D800C057
:0110D90047CF
:0110DA000213
:0110DB009084
:0110DC000013
:0110DD0028EA
:0110DE000011
:0110DF00F020
:0110E000B45B
:0110E100818D
:0110E200B05D
:0110E30069A3
:0110E40040CB
:0110E5001CEE
:0110E600B059
:0110E70061A7
:0110E80020E7
:0110E900788E
:0110EA0008FD
:0110EB00B94B
:0110EC00B053
:0110ED006999
:0110EE00AE53
:0110EF00E11F
:0110F00025DA
:0110F10028D6
:0110F200EE0F
:0110F300D12B
:0110F40000FB
:0110F50020DA
:0110F600F009
:0110F7006098
:0110F80030C7
:0110F9006195
:0110FA007085
:0110FB006193
:0110FC0001F2
:0110FD00E012
:0110FE0040B1
:0110FF00F000
:0111000001ED
:0111010000ED
:0111020014D8
:01110300F8F3
:0111040001E9
:011105001FCA
:0111060020C8
:0111070029BE
:01110800F9ED
:01110900D015
:01110A0023C1
:01110B0029BA
:01110C000DD5
:01110D00D011
:01110E002BB5
:01110F0029B6
:0111100004DA
:01111100D00D
:011112002DAF
:0111130029B2
:0111140006D4
:01111500D009
:0111160030A8
:0111170029AE
:011118000ACC
:01111900D005
:01111A000CC8
:01111B00E0F3
:01111C004092
:01111D00F0E1
:01111E0002CE
:01111F0000CF
:01112000804E
:01112100B21B
:01112200EEDE
:01112300E7E4
:01112400408A
:01112500F0D9
:0111260004C4
:0111270000C7
:01112800FACC
:01112900E7DE
:01112A004084
:01112B00F0D3
:01112C0008BA
:01112D0000C1
:01112E00F7C9
:01112F00E7D8
:01113000407E
:01113100F0CD
:0111320010AC
:0111330000BB
:01113400F4C6
:01113500E7D2
:011136002A8E
:01113700298E
:011138000DA9
:01113900D1E4
:01113A00298B
:01113B00684B
:01113C000AA8
:01113D001D94
:01113E002A86
:01113F00604F
:0111400009A5
:011141006845
:01114200317B
:011143006249
:0111440000AA
:011145002980
:0111460004A4
:01114700D5D2
:01114800495D
:011149004263
:01114A004064
:01114B00F0B3
:01114C00049E
:01114D0000A1
:01114E00316F
:01114F00623D
:01115000801E
:01115100B2EB
:011152006438
:011153001C7F
:011154001387
:01115500E0B9
:011156000098
:011157002176
:011158003165
:011159006233
:01115A000B89
:01115B00E0B3
:01115C003161
:01115D006A27
:01115E006F21
:01115F00F09F
:01116000008E
:01116100434A
:0111620099F3
:011163004249
:011164000585
:01116500D0B9
:011166000187
:01116700EB9C
:011168008105
:011169000382
:01116A000282
:01116B00EB98
:01116C00433F
:01116D000180
:01116E003050
:01116F003946
:01117000314D
:01117100621B
:011172006418
:011173001C5F
:011174002258
:011175007801
:01117600A2D6
:01117700F186
:011178003046
:011179000174
:01117A000A6A
:01117B00294A
:01117C00EE84
:01117D00D39E
:01117E00214F
:01117F0078F7
:011180002E40
:011181002944
:011182000369
:01118300D09B
:011184004F1B
:01118500F079
:01118600FF69
:011187003136
:01118800F175
:011189006104
:01118A001E46
:01118B00E083
:01118C00144E
:01118D00F869
:01118E00015F
:01118F001F40
:011190002A34
:011191002934
:011192000656
:01119300D18A
:011194002931
:0111950068F1
:011196000A4E
:011197001D3A
:011198002A2C
:0111990060F5
:01119A0064F0
:01119B001C37
:01119C000949
:01119D0068E9
:01119E00F15F
:01119F0061EE
:0111A000133B
:0111A100E06D
:0111A200004C
:0111A300212A
:0111A400F159
:0111A50061E8
:0111A6000B3D
:0111A700E067
:0111A800F155
:0111A90069DC
:0111AA006FD5
:0111AB00F053
:0111AC000042
:0111AD0043FE
:0111AE0099A7
:0111AF0042FD
:0111B0000539
:0111B100D06D
:0111B200013B
:0111B300EB50
:0111B40081B9
:0111B5000336
:0111B6000236
:0111B700EB4C
:0111B80043F3
:0111B9000134
:0111BA003004
:0111BB0039FA
:0111BC00F141
:0111BD0061D0
:0111BE0064CC
:0111BF001C13
:0111C000220C
:0111C10078B5
:0111C200A28A
:0111C300F13A
:0111C40030FA
:0111C5000128
:0111C6000A1E
:0111C70029FE
:0111C800EE38
:0111C900D352
:0111CA00B074
:0111CB00849F
:0111CC000F13
:0111CD00F22F
:0111CE0080A0
:0111CF0030EF
:0111D00021FD
:0111D10078A5
:0111D200001C
:0111D300F02B
:0111D400C159
:0111D500F920
:0111D6000810
:0111D700B166
:0111D8001402
:0111D900F81D
